{
  "contractName": "DSD",
  "abi": [
    {
      "anonymous": false,
      "inputs": [
        {
          "indexed": false,
          "internalType": "string",
          "name": "message",
          "type": "string"
        }
      ],
      "name": "Log",
      "type": "event"
    },
    {
      "inputs": [
        {
          "internalType": "uint256",
          "name": "",
          "type": "uint256"
        }
      ],
      "name": "Descriptions",
      "outputs": [
        {
          "internalType": "address",
          "name": "provider",
          "type": "address"
        },
        {
          "internalType": "string",
          "name": "name",
          "type": "string"
        },
        {
          "internalType": "string",
          "name": "description",
          "type": "string"
        },
        {
          "internalType": "string",
          "name": "category",
          "type": "string"
        },
        {
          "internalType": "string",
          "name": "security",
          "type": "string"
        },
        {
          "internalType": "string",
          "name": "legal",
          "type": "string"
        },
        {
          "internalType": "uint256",
          "name": "gasConsumption",
          "type": "uint256"
        }
      ],
      "stateMutability": "view",
      "type": "function",
      "constant": true
    },
    {
      "inputs": [
        {
          "internalType": "address",
          "name": "",
          "type": "address"
        }
      ],
      "name": "consumers",
      "outputs": [
        {
          "internalType": "bool",
          "name": "",
          "type": "bool"
        }
      ],
      "stateMutability": "view",
      "type": "function",
      "constant": true
    },
    {
      "inputs": [],
      "name": "descriptionCount",
      "outputs": [
        {
          "internalType": "uint256",
          "name": "",
          "type": "uint256"
        }
      ],
      "stateMutability": "view",
      "type": "function",
      "constant": true
    },
    {
      "inputs": [
        {
          "internalType": "address",
          "name": "",
          "type": "address"
        }
      ],
      "name": "providers",
      "outputs": [
        {
          "internalType": "string",
          "name": "username",
          "type": "string"
        },
        {
          "internalType": "string",
          "name": "password",
          "type": "string"
        },
        {
          "internalType": "bool",
          "name": "loggedIn",
          "type": "bool"
        }
      ],
      "stateMutability": "view",
      "type": "function",
      "constant": true
    },
    {
      "inputs": [
        {
          "internalType": "string",
          "name": "username",
          "type": "string"
        },
        {
          "internalType": "string",
          "name": "password",
          "type": "string"
        }
      ],
      "name": "authenticate",
      "outputs": [
        {
          "internalType": "bool",
          "name": "",
          "type": "bool"
        }
      ],
      "stateMutability": "view",
      "type": "function",
      "constant": true
    },
    {
      "inputs": [
        {
          "internalType": "string",
          "name": "username",
          "type": "string"
        },
        {
          "internalType": "string",
          "name": "password",
          "type": "string"
        }
      ],
      "name": "registerProvider",
      "outputs": [],
      "stateMutability": "nonpayable",
      "type": "function"
    },
    {
      "inputs": [
        {
          "internalType": "string",
          "name": "password",
          "type": "string"
        },
        {
          "internalType": "address",
          "name": "key",
          "type": "address"
        }
      ],
      "name": "signIn",
      "outputs": [],
      "stateMutability": "nonpayable",
      "type": "function"
    },
    {
      "inputs": [
        {
          "internalType": "address",
          "name": "publicKey",
          "type": "address"
        },
        {
          "internalType": "string",
          "name": "password",
          "type": "string"
        }
      ],
      "name": "logIn",
      "outputs": [],
      "stateMutability": "view",
      "type": "function",
      "constant": true
    },
    {
      "inputs": [],
      "name": "logOut",
      "outputs": [],
      "stateMutability": "nonpayable",
      "type": "function"
    },
    {
      "inputs": [
        {
          "internalType": "string",
          "name": "_name",
          "type": "string"
        },
        {
          "internalType": "string",
          "name": "_description",
          "type": "string"
        },
        {
          "internalType": "string",
          "name": "_category",
          "type": "string"
        },
        {
          "internalType": "string",
          "name": "_security",
          "type": "string"
        },
        {
          "internalType": "string",
          "name": "_legal",
          "type": "string"
        },
        {
          "internalType": "uint256",
          "name": "_gasConsumption",
          "type": "uint256"
        }
      ],
      "name": "PublishDesc",
      "outputs": [],
      "stateMutability": "payable",
      "type": "function",
      "payable": true
    },
    {
      "inputs": [
        {
          "internalType": "uint256",
          "name": "_descriptionId",
          "type": "uint256"
        }
      ],
      "name": "getDescription",
      "outputs": [
        {
          "internalType": "address",
          "name": "provider",
          "type": "address"
        },
        {
          "internalType": "string",
          "name": "name",
          "type": "string"
        },
        {
          "internalType": "string",
          "name": "description",
          "type": "string"
        },
        {
          "internalType": "string",
          "name": "category",
          "type": "string"
        },
        {
          "internalType": "string",
          "name": "security",
          "type": "string"
        },
        {
          "internalType": "string",
          "name": "legal",
          "type": "string"
        },
        {
          "internalType": "uint256",
          "name": "gasConsumption",
          "type": "uint256"
        }
      ],
      "stateMutability": "view",
      "type": "function",
      "constant": true
    },
    {
      "inputs": [
        {
          "internalType": "string",
          "name": "_name",
          "type": "string"
        },
        {
          "internalType": "string",
          "name": "_description",
          "type": "string"
        },
        {
          "internalType": "string",
          "name": "_category",
          "type": "string"
        },
        {
          "internalType": "string",
          "name": "_security",
          "type": "string"
        },
        {
          "internalType": "string",
          "name": "_legal",
          "type": "string"
        },
        {
          "internalType": "uint256",
          "name": "_gasConsumption",
          "type": "uint256"
        }
      ],
      "name": "SearchForAllDescription",
      "outputs": [
        {
          "components": [
            {
              "internalType": "address",
              "name": "provider",
              "type": "address"
            },
            {
              "internalType": "string",
              "name": "name",
              "type": "string"
            },
            {
              "internalType": "string",
              "name": "description",
              "type": "string"
            },
            {
              "internalType": "string",
              "name": "category",
              "type": "string"
            },
            {
              "internalType": "string",
              "name": "security",
              "type": "string"
            },
            {
              "internalType": "string",
              "name": "legal",
              "type": "string"
            },
            {
              "internalType": "uint256",
              "name": "gasConsumption",
              "type": "uint256"
            }
          ],
          "internalType": "struct DSD.Description[]",
          "name": "",
          "type": "tuple[]"
        }
      ],
      "stateMutability": "view",
      "type": "function",
      "constant": true
    },
    {
      "inputs": [
        {
          "internalType": "address",
          "name": "_providerAddress",
          "type": "address"
        }
      ],
      "name": "searchByProvider",
      "outputs": [
        {
          "components": [
            {
              "internalType": "address",
              "name": "provider",
              "type": "address"
            },
            {
              "internalType": "string",
              "name": "name",
              "type": "string"
            },
            {
              "internalType": "string",
              "name": "description",
              "type": "string"
            },
            {
              "internalType": "string",
              "name": "category",
              "type": "string"
            },
            {
              "internalType": "string",
              "name": "security",
              "type": "string"
            },
            {
              "internalType": "string",
              "name": "legal",
              "type": "string"
            },
            {
              "internalType": "uint256",
              "name": "gasConsumption",
              "type": "uint256"
            }
          ],
          "internalType": "struct DSD.Description[]",
          "name": "",
          "type": "tuple[]"
        }
      ],
      "stateMutability": "view",
      "type": "function",
      "constant": true
    }
  ],
  "bytecode": "0x608060405234801561001057600080fd5b506132da806100206000396000f3fe6080604052600436106100c15760003560e01c8063544541b31161007f578063c6d2679a11610059578063c6d2679a1461028a578063d480a1c2146102c7578063e1242cb714610304578063e28afdfc1461032d576100c1565b8063544541b3146101e157806374ca89711461021e5780637ccc7a1814610247576100c1565b8062c40d96146100c65780630787bc27146100e25780630bf536681461012157806323a96a4c1461015e5780634925ec55146101875780634be422ae146101ca575b600080fd5b6100e060048036038101906100db91906128a0565b610358565b005b3480156100ee57600080fd5b5061010960048036038101906101049190612a17565b610748565b60405161011893929190612ae7565b60405180910390f35b34801561012d57600080fd5b5061014860048036038101906101439190612a17565b61088f565b6040516101559190612b2c565b60405180910390f35b34801561016a57600080fd5b5061018560048036038101906101809190612b47565b6108af565b005b34801561019357600080fd5b506101ae60048036038101906101a99190612ba3565b610a1d565b6040516101c19796959493929190612bee565b60405180910390f35b3480156101d657600080fd5b506101df610dc0565b005b3480156101ed57600080fd5b5061020860048036038101906102039190612c80565b610e1d565b6040516102159190612b2c565b60405180910390f35b34801561022a57600080fd5b5061024560048036038101906102409190612c80565b610fe6565b005b34801561025357600080fd5b5061026e60048036038101906102699190612ba3565b611135565b6040516102819796959493929190612bee565b60405180910390f35b34801561029657600080fd5b506102b160048036038101906102ac9190612a17565b61143f565b6040516102be9190612eda565b60405180910390f35b3480156102d357600080fd5b506102ee60048036038101906102e991906128a0565b611953565b6040516102fb9190612eda565b60405180910390f35b34801561031057600080fd5b5061032b60048036038101906103269190612efc565b6124a2565b005b34801561033957600080fd5b50610342612614565b60405161034f9190612f58565b60405180910390f35b6000600260003373ffffffffffffffffffffffffffffffffffffffff1673ffffffffffffffffffffffffffffffffffffffff16815260200190815260200160002060000180546103a790612fa2565b905014156103ea576040517f08c379a00000000000000000000000000000000000000000000000000000000081526004016103e190613046565b60405180910390fd5b60003390506000600260008373ffffffffffffffffffffffffffffffffffffffff1673ffffffffffffffffffffffffffffffffffffffff16815260200190815260200160002090506001600081548092919061044590613095565b91905055506040518060e001604052808373ffffffffffffffffffffffffffffffffffffffff16815260200189815260200188815260200187815260200186815260200185815260200184815250600080600154815260200190815260200160002060008201518160000160006101000a81548173ffffffffffffffffffffffffffffffffffffffff021916908373ffffffffffffffffffffffffffffffffffffffff160217905550602082015181600101908051906020019061050a92919061261a565b50604082015181600201908051906020019061052792919061261a565b50606082015181600301908051906020019061054492919061261a565b50608082015181600401908051906020019061056192919061261a565b5060a082015181600501908051906020019061057e92919061261a565b5060c082015181600601559050508060020160009054906101000a900460ff166105dd576040517f08c379a00000000000000000000000000000000000000000000000000000000081526004016105d49061312a565b60405180910390fd5b6106ff8160000180546105ef90612fa2565b80601f016020809104026020016040519081016040528092919081815260200182805461061b90612fa2565b80156106685780601f1061063d57610100808354040283529160200191610668565b820191906000526020600020905b81548152906001019060200180831161064b57829003601f168201915b505050505082600101805461067c90612fa2565b80601f01602080910402602001604051908101604052809291908181526020018280546106a890612fa2565b80156106f55780601f106106ca576101008083540402835291602001916106f5565b820191906000526020600020905b8154815290600101906020018083116106d857829003601f168201915b5050505050610e1d565b61073e576040517f08c379a000000000000000000000000000000000000000000000000000000000815260040161073590613196565b60405180910390fd5b5050505050505050565b600260205280600052604060002060009150905080600001805461076b90612fa2565b80601f016020809104026020016040519081016040528092919081815260200182805461079790612fa2565b80156107e45780601f106107b9576101008083540402835291602001916107e4565b820191906000526020600020905b8154815290600101906020018083116107c757829003601f168201915b5050505050908060010180546107f990612fa2565b80601f016020809104026020016040519081016040528092919081815260200182805461082590612fa2565b80156108725780601f1061084757610100808354040283529160200191610872565b820191906000526020600020905b81548152906001019060200180831161085557829003601f168201915b5050505050908060020160009054906101000a900460ff16905083565b60036020528060005260406000206000915054906101000a900460ff1681565b6000600260008473ffffffffffffffffffffffffffffffffffffffff1673ffffffffffffffffffffffffffffffffffffffff16815260200190815260200160002090508060020160009054906101000a900460ff16610943576040517f08c379a000000000000000000000000000000000000000000000000000000000815260040161093a9061312a565b60405180910390fd5b6109d981600001805461095590612fa2565b80601f016020809104026020016040519081016040528092919081815260200182805461098190612fa2565b80156109ce5780601f106109a3576101008083540402835291602001916109ce565b820191906000526020600020905b8154815290600101906020018083116109b157829003601f168201915b505050505083610e1d565b610a18576040517f08c379a0000000000000000000000000000000000000000000000000000000008152600401610a0f90613196565b60405180910390fd5b505050565b600060608060608060606000806000808a81526020019081526020016000206040518060e00160405290816000820160009054906101000a900473ffffffffffffffffffffffffffffffffffffffff1673ffffffffffffffffffffffffffffffffffffffff1673ffffffffffffffffffffffffffffffffffffffff168152602001600182018054610aad90612fa2565b80601f0160208091040260200160405190810160405280929190818152602001828054610ad990612fa2565b8015610b265780601f10610afb57610100808354040283529160200191610b26565b820191906000526020600020905b815481529060010190602001808311610b0957829003601f168201915b50505050508152602001600282018054610b3f90612fa2565b80601f0160208091040260200160405190810160405280929190818152602001828054610b6b90612fa2565b8015610bb85780601f10610b8d57610100808354040283529160200191610bb8565b820191906000526020600020905b815481529060010190602001808311610b9b57829003601f168201915b50505050508152602001600382018054610bd190612fa2565b80601f0160208091040260200160405190810160405280929190818152602001828054610bfd90612fa2565b8015610c4a5780601f10610c1f57610100808354040283529160200191610c4a565b820191906000526020600020905b815481529060010190602001808311610c2d57829003601f168201915b50505050508152602001600482018054610c6390612fa2565b80601f0160208091040260200160405190810160405280929190818152602001828054610c8f90612fa2565b8015610cdc5780601f10610cb157610100808354040283529160200191610cdc565b820191906000526020600020905b815481529060010190602001808311610cbf57829003601f168201915b50505050508152602001600582018054610cf590612fa2565b80601f0160208091040260200160405190810160405280929190818152602001828054610d2190612fa2565b8015610d6e5780601f10610d4357610100808354040283529160200191610d6e565b820191906000526020600020905b815481529060010190602001808311610d5157829003601f168201915b505050505081526020016006820154815250509050806000015181602001518260400151836060015184608001518560a001518660c00151975097509750975097509750975050919395979092949650565b6000600260003373ffffffffffffffffffffffffffffffffffffffff1673ffffffffffffffffffffffffffffffffffffffff16815260200190815260200160002060020160006101000a81548160ff021916908315150217905550565b600080600260003373ffffffffffffffffffffffffffffffffffffffff1673ffffffffffffffffffffffffffffffffffffffff168152602001908152602001600020604051806060016040529081600082018054610e7a90612fa2565b80601f0160208091040260200160405190810160405280929190818152602001828054610ea690612fa2565b8015610ef35780601f10610ec857610100808354040283529160200191610ef3565b820191906000526020600020905b815481529060010190602001808311610ed657829003601f168201915b50505050508152602001600182018054610f0c90612fa2565b80601f0160208091040260200160405190810160405280929190818152602001828054610f3890612fa2565b8015610f855780601f10610f5a57610100808354040283529160200191610f85565b820191906000526020600020905b815481529060010190602001808311610f6857829003601f168201915b505050505081526020016002820160009054906101000a900460ff16151515158152505090508280519060200120816020015180519060200120148015610fdd57508380519060200120816000015180519060200120145b91505092915050565b6000600260003373ffffffffffffffffffffffffffffffffffffffff1673ffffffffffffffffffffffffffffffffffffffff168152602001908152602001600020600001805461103590612fa2565b905014611077576040517f08c379a000000000000000000000000000000000000000000000000000000000815260040161106e90613202565b60405180910390fd5b604051806060016040528083815260200182815260200160001515815250600260003373ffffffffffffffffffffffffffffffffffffffff1673ffffffffffffffffffffffffffffffffffffffff16815260200190815260200160002060008201518160000190805190602001906110f092919061261a565b50602082015181600101908051906020019061110d92919061261a565b5060408201518160020160006101000a81548160ff0219169083151502179055509050505050565b60006020528060005260406000206000915090508060000160009054906101000a900473ffffffffffffffffffffffffffffffffffffffff169080600101805461117e90612fa2565b80601f01602080910402602001604051908101604052809291908181526020018280546111aa90612fa2565b80156111f75780601f106111cc576101008083540402835291602001916111f7565b820191906000526020600020905b8154815290600101906020018083116111da57829003601f168201915b50505050509080600201805461120c90612fa2565b80601f016020809104026020016040519081016040528092919081815260200182805461123890612fa2565b80156112855780601f1061125a57610100808354040283529160200191611285565b820191906000526020600020905b81548152906001019060200180831161126857829003601f168201915b50505050509080600301805461129a90612fa2565b80601f01602080910402602001604051908101604052809291908181526020018280546112c690612fa2565b80156113135780601f106112e857610100808354040283529160200191611313565b820191906000526020600020905b8154815290600101906020018083116112f657829003601f168201915b50505050509080600401805461132890612fa2565b80601f016020809104026020016040519081016040528092919081815260200182805461135490612fa2565b80156113a15780601f10611376576101008083540402835291602001916113a1565b820191906000526020600020905b81548152906001019060200180831161138457829003601f168201915b5050505050908060050180546113b690612fa2565b80601f01602080910402602001604051908101604052809291908181526020018280546113e290612fa2565b801561142f5780601f106114045761010080835404028352916020019161142f565b820191906000526020600020905b81548152906001019060200180831161141257829003601f168201915b5050505050908060060154905087565b6060600080600190505b60015481116114dd578373ffffffffffffffffffffffffffffffffffffffff1660008083815260200190815260200160002060000160009054906101000a900473ffffffffffffffffffffffffffffffffffffffff1673ffffffffffffffffffffffffffffffffffffffff1614156114ca5781806114c690613095565b9250505b80806114d590613095565b915050611449565b5060008167ffffffffffffffff8111156114fa576114f961273f565b5b60405190808252806020026020018201604052801561153357816020015b6115206126a0565b8152602001906001900390816115185790505b509050600080600190505b6001548111611947578573ffffffffffffffffffffffffffffffffffffffff1660008083815260200190815260200160002060000160009054906101000a900473ffffffffffffffffffffffffffffffffffffffff1673ffffffffffffffffffffffffffffffffffffffff161415611934576000808281526020019081526020016000206040518060e00160405290816000820160009054906101000a900473ffffffffffffffffffffffffffffffffffffffff1673ffffffffffffffffffffffffffffffffffffffff1673ffffffffffffffffffffffffffffffffffffffff16815260200160018201805461163390612fa2565b80601f016020809104026020016040519081016040528092919081815260200182805461165f90612fa2565b80156116ac5780601f10611681576101008083540402835291602001916116ac565b820191906000526020600020905b81548152906001019060200180831161168f57829003601f168201915b505050505081526020016002820180546116c590612fa2565b80601f01602080910402602001604051908101604052809291908181526020018280546116f190612fa2565b801561173e5780601f106117135761010080835404028352916020019161173e565b820191906000526020600020905b81548152906001019060200180831161172157829003601f168201915b5050505050815260200160038201805461175790612fa2565b80601f016020809104026020016040519081016040528092919081815260200182805461178390612fa2565b80156117d05780601f106117a5576101008083540402835291602001916117d0565b820191906000526020600020905b8154815290600101906020018083116117b357829003601f168201915b505050505081526020016004820180546117e990612fa2565b80601f016020809104026020016040519081016040528092919081815260200182805461181590612fa2565b80156118625780601f1061183757610100808354040283529160200191611862565b820191906000526020600020905b81548152906001019060200180831161184557829003601f168201915b5050505050815260200160058201805461187b90612fa2565b80601f01602080910402602001604051908101604052809291908181526020018280546118a790612fa2565b80156118f45780601f106118c9576101008083540402835291602001916118f4565b820191906000526020600020905b8154815290600101906020018083116118d757829003601f168201915b5050505050815260200160068201548152505083838151811061191a57611919613222565b5b6020026020010181905250818061193090613095565b9250505b808061193f90613095565b91505061153e565b50819350505050919050565b6060600080600190505b6001548111611eb75760008060008381526020019081526020016000206040518060e00160405290816000820160009054906101000a900473ffffffffffffffffffffffffffffffffffffffff1673ffffffffffffffffffffffffffffffffffffffff1673ffffffffffffffffffffffffffffffffffffffff1681526020016001820180546119eb90612fa2565b80601f0160208091040260200160405190810160405280929190818152602001828054611a1790612fa2565b8015611a645780601f10611a3957610100808354040283529160200191611a64565b820191906000526020600020905b815481529060010190602001808311611a4757829003601f168201915b50505050508152602001600282018054611a7d90612fa2565b80601f0160208091040260200160405190810160405280929190818152602001828054611aa990612fa2565b8015611af65780601f10611acb57610100808354040283529160200191611af6565b820191906000526020600020905b815481529060010190602001808311611ad957829003601f168201915b50505050508152602001600382018054611b0f90612fa2565b80601f0160208091040260200160405190810160405280929190818152602001828054611b3b90612fa2565b8015611b885780601f10611b5d57610100808354040283529160200191611b88565b820191906000526020600020905b815481529060010190602001808311611b6b57829003601f168201915b50505050508152602001600482018054611ba190612fa2565b80601f0160208091040260200160405190810160405280929190818152602001828054611bcd90612fa2565b8015611c1a5780601f10611bef57610100808354040283529160200191611c1a565b820191906000526020600020905b815481529060010190602001808311611bfd57829003601f168201915b50505050508152602001600582018054611c3390612fa2565b80601f0160208091040260200160405190810160405280929190818152602001828054611c5f90612fa2565b8015611cac5780601f10611c8157610100808354040283529160200191611cac565b820191906000526020600020905b815481529060010190602001808311611c8f57829003601f168201915b50505050508152602001600682015481525050905089604051602001611cd2919061328d565b604051602081830303815290604052805190602001208160200151604051602001611cfd919061328d565b60405160208183030381529060405280519060200120148015611d6f575088604051602001611d2c919061328d565b604051602081830303815290604052805190602001208160400151604051602001611d57919061328d565b60405160208183030381529060405280519060200120145b8015611dca575087604051602001611d87919061328d565b604051602081830303815290604052805190602001208160600151604051602001611db2919061328d565b60405160208183030381529060405280519060200120145b8015611e25575086604051602001611de2919061328d565b604051602081830303815290604052805190602001208160800151604051602001611e0d919061328d565b60405160208183030381529060405280519060200120145b8015611e80575085604051602001611e3d919061328d565b604051602081830303815290604052805190602001208160a00151604051602001611e68919061328d565b60405160208183030381529060405280519060200120145b8015611e8f5750848160c00151145b15611ea3578280611e9f90613095565b9350505b508080611eaf90613095565b91505061195d565b5060008167ffffffffffffffff811115611ed457611ed361273f565b5b604051908082528060200260200182016040528015611f0d57816020015b611efa6126a0565b815260200190600190039081611ef25790505b509050600080600190505b60015481116124915760008060008381526020019081526020016000206040518060e00160405290816000820160009054906101000a900473ffffffffffffffffffffffffffffffffffffffff1673ffffffffffffffffffffffffffffffffffffffff1673ffffffffffffffffffffffffffffffffffffffff168152602001600182018054611fa690612fa2565b80601f0160208091040260200160405190810160405280929190818152602001828054611fd290612fa2565b801561201f5780601f10611ff45761010080835404028352916020019161201f565b820191906000526020600020905b81548152906001019060200180831161200257829003601f168201915b5050505050815260200160028201805461203890612fa2565b80601f016020809104026020016040519081016040528092919081815260200182805461206490612fa2565b80156120b15780601f10612086576101008083540402835291602001916120b1565b820191906000526020600020905b81548152906001019060200180831161209457829003601f168201915b505050505081526020016003820180546120ca90612fa2565b80601f01602080910402602001604051908101604052809291908181526020018280546120f690612fa2565b80156121435780601f1061211857610100808354040283529160200191612143565b820191906000526020600020905b81548152906001019060200180831161212657829003601f168201915b5050505050815260200160048201805461215c90612fa2565b80601f016020809104026020016040519081016040528092919081815260200182805461218890612fa2565b80156121d55780601f106121aa576101008083540402835291602001916121d5565b820191906000526020600020905b8154815290600101906020018083116121b857829003601f168201915b505050505081526020016005820180546121ee90612fa2565b80601f016020809104026020016040519081016040528092919081815260200182805461221a90612fa2565b80156122675780601f1061223c57610100808354040283529160200191612267565b820191906000526020600020905b81548152906001019060200180831161224a57829003601f168201915b5050505050815260200160068201548152505090508b60405160200161228d919061328d565b6040516020818303038152906040528051906020012081602001516040516020016122b8919061328d565b6040516020818303038152906040528051906020012014801561232a57508a6040516020016122e7919061328d565b604051602081830303815290604052805190602001208160400151604051602001612312919061328d565b60405160208183030381529060405280519060200120145b8015612385575089604051602001612342919061328d565b60405160208183030381529060405280519060200120816060015160405160200161236d919061328d565b60405160208183030381529060405280519060200120145b80156123e057508860405160200161239d919061328d565b6040516020818303038152906040528051906020012081608001516040516020016123c8919061328d565b60405160208183030381529060405280519060200120145b801561243b5750876040516020016123f8919061328d565b604051602081830303815290604052805190602001208160a00151604051602001612423919061328d565b60405160208183030381529060405280519060200120145b801561244a5750868160c00151145b1561247d578084848151811061246357612462613222565b5b6020026020010181905250828061247990613095565b9350505b50808061248990613095565b915050611f18565b508193505050509695505050505050565b612576600260008373ffffffffffffffffffffffffffffffffffffffff1673ffffffffffffffffffffffffffffffffffffffff16815260200190815260200160002060000180546124f290612fa2565b80601f016020809104026020016040519081016040528092919081815260200182805461251e90612fa2565b801561256b5780601f106125405761010080835404028352916020019161256b565b820191906000526020600020905b81548152906001019060200180831161254e57829003601f168201915b505050505083610e1d565b6125b5576040517f08c379a00000000000000000000000000000000000000000000000000000000081526004016125ac90613196565b60405180910390fd5b6001600260008373ffffffffffffffffffffffffffffffffffffffff1673ffffffffffffffffffffffffffffffffffffffff16815260200190815260200160002060020160006101000a81548160ff0219169083151502179055505050565b60015481565b82805461262690612fa2565b90600052602060002090601f016020900481019282612648576000855561268f565b82601f1061266157805160ff191683800117855561268f565b8280016001018555821561268f579182015b8281111561268e578251825591602001919060010190612673565b5b50905061269c91906126f3565b5090565b6040518060e00160405280600073ffffffffffffffffffffffffffffffffffffffff1681526020016060815260200160608152602001606081526020016060815260200160608152602001600081525090565b5b8082111561270c5760008160009055506001016126f4565b5090565b6000604051905090565b600080fd5b600080fd5b600080fd5b600080fd5b6000601f19601f8301169050919050565b7f4e487b7100000000000000000000000000000000000000000000000000000000600052604160045260246000fd5b6127778261272e565b810181811067ffffffffffffffff821117156127965761279561273f565b5b80604052505050565b60006127a9612710565b90506127b5828261276e565b919050565b600067ffffffffffffffff8211156127d5576127d461273f565b5b6127de8261272e565b9050602081019050919050565b82818337600083830152505050565b600061280d612808846127ba565b61279f565b90508281526020810184848401111561282957612828612729565b5b6128348482856127eb565b509392505050565b600082601f83011261285157612850612724565b5b81356128618482602086016127fa565b91505092915050565b6000819050919050565b61287d8161286a565b811461288857600080fd5b50565b60008135905061289a81612874565b92915050565b60008060008060008060c087890312156128bd576128bc61271a565b5b600087013567ffffffffffffffff8111156128db576128da61271f565b5b6128e789828a0161283c565b965050602087013567ffffffffffffffff8111156129085761290761271f565b5b61291489828a0161283c565b955050604087013567ffffffffffffffff8111156129355761293461271f565b5b61294189828a0161283c565b945050606087013567ffffffffffffffff8111156129625761296161271f565b5b61296e89828a0161283c565b935050608087013567ffffffffffffffff81111561298f5761298e61271f565b5b61299b89828a0161283c565b92505060a06129ac89828a0161288b565b9150509295509295509295565b600073ffffffffffffffffffffffffffffffffffffffff82169050919050565b60006129e4826129b9565b9050919050565b6129f4816129d9565b81146129ff57600080fd5b50565b600081359050612a11816129eb565b92915050565b600060208284031215612a2d57612a2c61271a565b5b6000612a3b84828501612a02565b91505092915050565b600081519050919050565b600082825260208201905092915050565b60005b83811015612a7e578082015181840152602081019050612a63565b83811115612a8d576000848401525b50505050565b6000612a9e82612a44565b612aa88185612a4f565b9350612ab8818560208601612a60565b612ac18161272e565b840191505092915050565b60008115159050919050565b612ae181612acc565b82525050565b60006060820190508181036000830152612b018186612a93565b90508181036020830152612b158185612a93565b9050612b246040830184612ad8565b949350505050565b6000602082019050612b416000830184612ad8565b92915050565b60008060408385031215612b5e57612b5d61271a565b5b6000612b6c85828601612a02565b925050602083013567ffffffffffffffff811115612b8d57612b8c61271f565b5b612b998582860161283c565b9150509250929050565b600060208284031215612bb957612bb861271a565b5b6000612bc78482850161288b565b91505092915050565b612bd9816129d9565b82525050565b612be88161286a565b82525050565b600060e082019050612c03600083018a612bd0565b8181036020830152612c158189612a93565b90508181036040830152612c298188612a93565b90508181036060830152612c3d8187612a93565b90508181036080830152612c518186612a93565b905081810360a0830152612c658185612a93565b9050612c7460c0830184612bdf565b98975050505050505050565b60008060408385031215612c9757612c9661271a565b5b600083013567ffffffffffffffff811115612cb557612cb461271f565b5b612cc18582860161283c565b925050602083013567ffffffffffffffff811115612ce257612ce161271f565b5b612cee8582860161283c565b9150509250929050565b600081519050919050565b600082825260208201905092915050565b6000819050602082019050919050565b612d2d816129d9565b82525050565b600082825260208201905092915050565b6000612d4f82612a44565b612d598185612d33565b9350612d69818560208601612a60565b612d728161272e565b840191505092915050565b612d868161286a565b82525050565b600060e083016000830151612da46000860182612d24565b5060208301518482036020860152612dbc8282612d44565b91505060408301518482036040860152612dd68282612d44565b91505060608301518482036060860152612df08282612d44565b91505060808301518482036080860152612e0a8282612d44565b91505060a083015184820360a0860152612e248282612d44565b91505060c0830151612e3960c0860182612d7d565b508091505092915050565b6000612e508383612d8c565b905092915050565b6000602082019050919050565b6000612e7082612cf8565b612e7a8185612d03565b935083602082028501612e8c85612d14565b8060005b85811015612ec85784840389528151612ea98582612e44565b9450612eb483612e58565b925060208a01995050600181019050612e90565b50829750879550505050505092915050565b60006020820190508181036000830152612ef48184612e65565b905092915050565b60008060408385031215612f1357612f1261271a565b5b600083013567ffffffffffffffff811115612f3157612f3061271f565b5b612f3d8582860161283c565b9250506020612f4e85828601612a02565b9150509250929050565b6000602082019050612f6d6000830184612bdf565b92915050565b7f4e487b7100000000000000000000000000000000000000000000000000000000600052602260045260246000fd5b60006002820490506001821680612fba57607f821691505b60208210811415612fce57612fcd612f73565b5b50919050565b7f4f6e6c792070726f7669646572732063616e206163636573732074686973206660008201527f756e6374696f6e2e000000000000000000000000000000000000000000000000602082015250565b6000613030602883612a4f565b915061303b82612fd4565b604082019050919050565b6000602082019050818103600083015261305f81613023565b9050919050565b7f4e487b7100000000000000000000000000000000000000000000000000000000600052601160045260246000fd5b60006130a08261286a565b91507fffffffffffffffffffffffffffffffffffffffffffffffffffffffffffffffff8214156130d3576130d2613066565b5b600182019050919050565b7f50726f7669646572206973206e6f74207369676e656420696e2e000000000000600082015250565b6000613114601a83612a4f565b915061311f826130de565b602082019050919050565b6000602082019050818103600083015261314381613107565b9050919050565b7f496e636f72726563742070617373776f72642e00000000000000000000000000600082015250565b6000613180601383612a4f565b915061318b8261314a565b602082019050919050565b600060208201905081810360008301526131af81613173565b9050919050565b7f50726f766964657220697320616c726561647920726567697374657265642e00600082015250565b60006131ec601f83612a4f565b91506131f7826131b6565b602082019050919050565b6000602082019050818103600083015261321b816131df565b9050919050565b7f4e487b7100000000000000000000000000000000000000000000000000000000600052603260045260246000fd5b600081905092915050565b600061326782612a44565b6132718185613251565b9350613281818560208601612a60565b80840191505092915050565b6000613299828461325c565b91508190509291505056fea2646970667358221220bb1f086f7909fef398d999968e0c272cca3e3a90304351d144a81cc702a9dfbf64736f6c63430008090033",
  "immutableReferences": {},
  "source": "// SPDX-License-Identifier: MIT\r\npragma solidity ^0.8.0;\r\n\r\ncontract DSD {\r\n    struct Description {\r\n        address provider;\r\n        string name;\r\n        string description;\r\n        string category;\r\n        string security;\r\n        string legal;\r\n        uint gasConsumption;\r\n    }\r\n\r\n    event Log(string message);\r\n\r\n    mapping(uint => Description) public Descriptions;\r\n    uint public descriptionCount;\r\n\r\n    struct Provider {\r\n        string username;\r\n        string password;\r\n        bool loggedIn;\r\n    }\r\n\r\n    mapping(address => Provider) public providers;\r\n    mapping(address => bool) public consumers;\r\n\r\n    modifier onlyProvider() {\r\n        require(bytes(providers[msg.sender].username).length != 0, \"Only providers can access this function.\");\r\n        _;\r\n    }\r\n\r\n    function authenticate(string memory username, string memory password) public view returns(bool) {\r\n        Provider memory provider = providers[msg.sender];\r\n        return (keccak256(bytes(provider.password)) == keccak256(bytes(password))&& keccak256(bytes(provider.username)) == keccak256(bytes(username)));\r\n    }\r\n\r\n    function registerProvider(string memory username, string memory password) public {\r\n        require(bytes(providers[msg.sender].username).length == 0, \"Provider is already registered.\");\r\n        providers[msg.sender] = Provider(username, password, false);\r\n    }\r\n\r\n    function signIn(string memory password, address key) public {\r\n        require(authenticate(providers[key].username, password), \"Incorrect password.\");\r\n        providers[key].loggedIn = true;\r\n    }\r\n\r\n    function logIn(address publicKey, string memory password)  public view{\r\n        //address providerAddress = msg.sender;\r\n        Provider storage provider = providers[publicKey];\r\n        require(provider.loggedIn, \"Provider is not signed in.\");\r\n        require(authenticate(provider.username, password), \"Incorrect password.\");\r\n    }\r\n       function logOut() public {\r\n        providers[msg.sender].loggedIn = false;\r\n    }\r\n\r\n    function PublishDesc(\r\n        string memory _name,\r\n        string memory _description,\r\n        string memory _category,\r\n        string memory _security,\r\n        string memory _legal,\r\n        uint _gasConsumption\r\n    ) public onlyProvider payable {\r\n        address providerAddress = msg.sender;\r\n        Provider storage provider = providers[providerAddress];\r\n        descriptionCount++;\r\n        Descriptions[descriptionCount] = Description(\r\n            providerAddress,\r\n            _name,\r\n            _description,\r\n            _category,\r\n            _security,\r\n            _legal,\r\n            _gasConsumption\r\n        );\r\n        require(provider.loggedIn, \"Provider is not signed in.\");\r\n        require(authenticate(provider.username, provider.password), \"Incorrect password.\");\r\n    }\r\n\r\n    function getDescription(uint _descriptionId) public view returns (\r\n        address provider,\r\n        string memory name,\r\n        string memory description,\r\n        string memory category,\r\n        string memory security,\r\n        string memory legal,\r\n        uint gasConsumption\r\n    ) {\r\n        Description memory desc = Descriptions[_descriptionId];\r\n        return (\r\n            desc.provider,\r\n            desc.name,\r\n            desc.description,\r\n            desc.category,\r\n            desc.security,\r\n            desc.legal,\r\n            desc.gasConsumption\r\n        );\r\n    }\r\n\r\n     function SearchForAllDescription(\r\n        string memory _name,\r\n        string memory _description,\r\n        string memory _category,\r\n        string memory _security,\r\n        string memory _legal,\r\n        uint _gasConsumption\r\n    ) public view returns (Description[] memory) {\r\n        uint count = 0;\r\n\r\n        // Count the number of matching descriptions\r\n        for (uint i = 1; i <= descriptionCount; i++) {\r\n            Description memory desc = Descriptions[i];\r\n            if (\r\n                keccak256(abi.encodePacked(desc.name)) == keccak256(abi.encodePacked(_name)) &&\r\n                keccak256(abi.encodePacked(desc.description)) == keccak256(abi.encodePacked(_description)) &&\r\n                keccak256(abi.encodePacked(desc.category)) == keccak256(abi.encodePacked(_category)) &&\r\n                keccak256(abi.encodePacked(desc.security)) == keccak256(abi.encodePacked(_security)) &&\r\n                keccak256(abi.encodePacked(desc.legal)) == keccak256(abi.encodePacked(_legal)) &&\r\n                desc.gasConsumption == _gasConsumption\r\n            ) {\r\n                count++;\r\n            }\r\n        }\r\n\r\n        // Create an array to store the matching descriptions\r\n        Description[] memory descriptionList = new Description[](count);\r\n\r\n        // Populate the array with the matching descriptions\r\n        uint index = 0;\r\n        for (uint i = 1; i <= descriptionCount; i++) {\r\n            Description memory desc = Descriptions[i];\r\n            if (\r\n                keccak256(abi.encodePacked(desc.name)) == keccak256(abi.encodePacked(_name)) &&\r\n                keccak256(abi.encodePacked(desc.description)) == keccak256(abi.encodePacked(_description)) &&\r\n                keccak256(abi.encodePacked(desc.category)) == keccak256(abi.encodePacked(_category)) &&\r\n                keccak256(abi.encodePacked(desc.security)) == keccak256(abi.encodePacked(_security)) &&\r\n                keccak256(abi.encodePacked(desc.legal)) == keccak256(abi.encodePacked(_legal)) &&\r\n                desc.gasConsumption == _gasConsumption\r\n            ) {\r\n                descriptionList[index] = desc;\r\n                index++;\r\n            }\r\n        }\r\n\r\n        return descriptionList;\r\n    }\r\n      function searchByProvider(address _providerAddress) public view returns (Description[] memory) {\r\n        uint count = 0;\r\n\r\n        // Count the number of descriptions by the provider address\r\n        for (uint i = 1; i <= descriptionCount; i++) {\r\n            if (Descriptions[i].provider == _providerAddress) {\r\n                count++;\r\n            }\r\n        }\r\n\r\n        // Create an array to store the descriptions\r\n        Description[] memory descriptionList = new Description[](count);\r\n\r\n        // Populate the array with the descriptions by the provider address\r\n        uint index = 0;\r\n        for (uint i = 1; i <= descriptionCount; i++) {\r\n            if (Descriptions[i].provider == _providerAddress) {\r\n                descriptionList[index] = Descriptions[i];\r\n                index++;\r\n            }\r\n        }\r\n\r\n        return descriptionList;\r\n    }\r\n}\r\n",
  "sourcePath": "C:\\Users\\wfabe\\Documents\\DSD\\contracts\\DSD.sol",
  "compiler": {
    "name": "solc",
    "version": "0.8.9+commit.e5eed63a.Emscripten.clang"
  },
  "schemaVersion": "3.4.14",
  "updatedAt": "2023-06-13T14:04:27.999Z",
  "networkType": "ethereum",
  "devdoc": {
    "kind": "dev",
    "methods": {},
    "version": 1
  },
  "userdoc": {
    "kind": "user",
    "methods": {},
    "version": 1
  }
}